:100000000C945D000C9485000C9485000C94850084
:100010000C9485000C9485000C9485000C9485004C
:100020000C9485000C9485000C9485000C94DC04E1
:100030000C9485000C9485000C9485000C9485002C
:100040000C943A040C9485000C94AA040C94840437
:100050000C9485000C9485000C9485000C9485000C
:100060000C9485000C9485000000000024002700FB
:100070002A0000000000250028002B0004040404CE
:100080000404040402020202020203030303030342
:10009000010204081020408001020408102001021F
:1000A00004081020000000080002010000030407FB
:1000B0000000000000000000980511241FBECFEFD3
:1000C000D8E0DEBFCDBF11E0A0E0B1E0EEE9FFE097
:1000D00002C005900D92A631B107D9F721E0A6E143
:1000E000B1E001C01D92A83EB207E1F710E0CDE5F6
:1000F000D0E004C02197FE010E94C707CC35D1078C
:10010000C9F70E940F060C94CD070C94000080E400
:1001100080937C0080917A00806480937A00809143
:100120007A0086FDFCCF8091780090917900089547
:1001300090E0FC01EC55FF4F2491FC01E057FF4F8C
:100140003491FC01E458FF4FE491EE23C9F02223DF
:1001500039F0233001F1A8F4213019F1223029F1CE
:10016000F0E0EE0FFF1FEE58FF4FA591B4918FB74F
:10017000F894EC91611126C030953E233C938FBFDB
:1001800008952730A9F02830C9F0243049F780912C
:1001900080008F7D03C0809180008F7780938000E6
:1001A000DFCF84B58F7784BDDBCF84B58F7DFBCF68
:1001B0008091B0008F778093B000D2CF8091B00053
:1001C0008F7DF9CF3E2BDACFCF93DF9390E0FC0108
:1001D000E057FF4F249184589F4FFC01849188235E
:1001E000D1F090E0880F991FFC01E859FF4FA591CD
:1001F000B491FC01EE58FF4FC591D49161110EC02E
:100200009FB7F8948C91E22FE0958E238C932881F0
:10021000E223E8839FBFDF91CF9108958FB7F894D1
:10022000EC91E22BEC938FBFF6CF3FB7F89480911F
:100230001C0190911D01A0911E01B0911F0126B5D6
:10024000A89B05C02F3F19F00196A11DB11D3FBF0E
:10025000BA2FA92F982F8827BC01CD01620F711DDD
:10026000811D911D42E0660F771F881F991F4A95D7
:10027000D1F708958F929F92AF92BF92CF92DF9263
:10028000EF92FF924B015C010E9415016B017C0112
:100290000E9415016C197D098E099F09683E734003
:1002A00081059105A8F321E0821A9108A108B108FF
:1002B00088EEC80E83E0D81EE11CF11C8114910465
:1002C000A104B10429F7FF90EF90DF90CF90BF9089
:1002D000AF909F908F900895AF92BF92CF92DF9290
:1002E000EF92FF920F931F93CF93DF936C017B01EB
:1002F0008B01040F151FEB015E01AE18BF08C0177C
:10030000D10759F06991D601ED91FC910190F081EE
:10031000E02DC6010995892B79F7C501DF91CF91B1
:100320001F910F91FF90EF90DF90CF90BF90AF9013
:100330000895FC01538D448D252F30E0842F90E0EB
:10034000821B930B541710F0CF96089501970895D0
:10035000FC01918D828D981761F0A28DAE0FBF2F99
:10036000B11D5D968C91928D9F5F9F73928F90E0EF
:1003700008958FEF9FEF0895FC01918D828D98175E
:1003800031F0828DE80FF11D858D90E008958FEF9B
:100390009FEF0895FC01918D228D892F90E0805C64
:1003A0009F4F821B91098F739927089580E291E0F6
:1003B0000E94CA0121E0892B09F420E0822F0895D0
:1003C00080E090E0892B29F00E94D60181110C94E5
:1003D00000000895FC01A48DA80FB92FB11DA35AE8
:1003E000BF4F2C91848D90E001968F739927848F55
:1003F000A689B7892C93A089B1898C918370806478
:100400008C93938D848D981306C00288F389E02D18
:1004100080818F7D80830895EF92FF920F931F93C9
:10042000CF93DF93EC0181E0888F9B8D8C8D9813A7
:100430001AC0E889F989808185FF15C09FB7F894B3
:10044000EE89FF896083E889F989808183708064FF
:1004500080839FBF81E090E0DF91CF911F910F914A
:10046000FF90EF900895F62E0B8D10E00F5F1F4F59
:100470000F731127E02E8C8D8E110CC00FB607FC68
:10048000FACFE889F989808185FFF5CFCE010E94F6
:10049000EA01F1CFEB8DEC0FFD2FF11DE35AFF4F79
:1004A000F0829FB7F8940B8FEA89FB898081806284
:1004B000CFCFCF93DF93EC01888D8823B9F0AA8941
:1004C000BB89E889F9898C9185FD03C0808186FD0F
:1004D0000DC00FB607FCF7CF8C9185FFF2CF80815E
:1004E00085FFEDCFCE010E94EA01E9CFDF91CF91E8
:1004F00008958F929F92AF92BF92FF920F931F9396
:10050000CF93DF93FC01F0808BE08F1508F44FC090
:10051000828108E512E0081B110987FD1395000F81
:10052000111F000F111F8181C8E8D0E0C81BD1093D
:1005300087FDD395CC0FDD1FCC0FDD1F4E010D2E97
:10054000000CAA08BB08DB01653B710514F0A4EBA5
:10055000B0E09801012E000C440B550B2819390905
:100560004A095B090E947B0724EB30E040E050E041
:100570000E945107820E931EA41EB51E8C169D0666
:100580002CF0E801801691060CF4E4012297CC0FC0
:10059000DD1F2FB7F8948F2D90E0FC01EE0FFF1FA9
:1005A000E80FF91FE354FE4FD283C1832FBFDF91C1
:1005B000CF911F910F91FF90BF90AF909F908F9020
:1005C00008951F93CF93DF93EC01162F88818C3011
:1005D00008F04EC061E0812F0E94E4008881282F3E
:1005E00030E0F901EE0FFF1FE20FF31FE354FE4F5F
:1005F0001F736081607C612B608319821A822CE0FA
:10060000622F0E94B407829FB001112430E020E0E5
:10061000AB01420F531FFA01EE0FFF1FE40FF51F4E
:10062000E354FE4F908196FD16C02F5F3F4F2C3054
:10063000310571F781110FC01092800082E0809324
:1006400081001092850010928400B19A80916F0011
:10065000826080936F00E8818E2F90E0FC01EE0FA6
:10066000FF1FE80FF91FE354FE4F808180648083F1
:100670008881DF91CF911F9108958F929F92AF92C1
:10068000BF920F931F93CF93DF93CDB7DEB7A197A0
:100690000FB6F894DEBF0FBECDBF19A2423008F4EA
:1006A0004AE08E010F5D1F4F842E912CB12CA12C9E
:1006B000A50194010E948307E62FB901CA01EA301F
:1006C00044F5E05DD801EE938D01232B242B252BDF
:1006D00079F790E080E0109769F0FD01019000202B
:1006E000E9F73197AF014A1B5B0BBD0180E291E056
:1006F0000E946C01A1960FB6F894DEBF0FBECDBF6D
:10070000DF91CF911F910F91BF90AF909F908F90ED
:100710000895E95CD7CFCF92DF92EF92FF92CF930B
:100720000E948700883592400CF093C061E082E01F
:100730000E9498000E9487006C01990FEE08FF0844
:100740004AE0C701B601F7FE0DC06DE280E291E01C
:100750000E940C0266277727CB016C197D098E0950
:100760009F094AE00E943D0342E050E062E171E0EF
:1007700080E291E00E946C010E9487002FEF30E040
:10078000DC010E94C0072FEF33E040E050E00E9400
:100790005107C22FD32EE22EF32E61E086E00E9495
:1007A000E400E114F10429F460E086E00E9498007E
:1007B000FFCF8FEFE816F10429F461E086E00E9494
:1007C0009800F6CFEAEAF0E0E491E33031F148F442
:1007D000E130C9F0E230E1F020E8E216F1046CF714
:1007E000E3CFE73031F1E83061F1E430A9F78091EF
:1007F00080008062809380008C2F9D2D90938B00D1
:1008000080938A00D5CF84B5806884BDC7BDD0CF22
:1008100084B5806284BDC8BDCBCF809180008068E4
:10082000809380008C2F9D2D909389008093880069
:10083000BFCF8091B00080688093B000C093B300B8
:10084000B7CF8091B00080628093B000C093B400B5
:10085000AFCF60E082E00E94980061E086E00E94F5
:10086000E40060E086E0CF91FF90EF90DF90CF90C2
:100870000C9498001F920F920FB60F9211242F9391
:100880003F938F939F93AF93BF9380911801909163
:100890001901A0911A01B0911B013091170123E0B9
:1008A000230F2D3758F50196A11DB11D2093170177
:1008B0008093180190931901A0931A01B0931B0122
:1008C00080911C0190911D01A0911E01B0911F010A
:1008D0000196A11DB11D80931C0190931D01A09351
:1008E0001E01B0931F01BF91AF919F918F913F91D6
:1008F0002F910F900FBE0F901F90189526E8230F91
:100900000296A11DB11DD2CF1F920F920FB60F926A
:1009100011242F933F934F935F936F937F938F9304
:100920009F93AF93BF93EF93FF9380E291E00E9478
:10093000EA01FF91EF91BF91AF919F918F917F91CC
:100940006F915F914F913F912F910F900FBE0F903C
:100950001F9018951F920F920FB60F9211242F938C
:100960008F939F93EF93FF93E0913001F0913101CA
:100970008081E0913601F091370182FD1BC09081AA
:10098000809139018F5F8F7320913A01821741F076
:10099000E0913901F0E0E05EFE4F958F80933901E0
:1009A000FF91EF919F918F912F910F900FBE0F901C
:1009B0001F9018958081F4CF1F920F920FB60F925F
:1009C00011242F933F934F935F936F937F938F9354
:1009D0009F93AF93BF93CF93DF93EF93FF93809158
:1009E0001601C091E101D0E087FF24C0109285007C
:1009F00010928400809116018F5F80931601809180
:100A00001601082E000C990B8C179D0724F4809179
:100A100016018C30C4F18091840090918500049679
:100A200080349C4908F47AC08091840090918500BC
:100A3000049676C080911601082E000C990B8C1735
:100A40009D07C4F6E09116018E2FEE0F990BFC0165
:100A5000EE0FFF1FE80FF91FE354FE4F808186FF62
:100A6000C9CFE09116018E2FEE0F990BFC01EE0F0E
:100A7000FF1FE80FF91FE354FE4F808160E08F7382
:100A80000E949800B7CF2091840030918500E091BA
:100A900016018E2FEE0F990BFC01EE0FFF1FE80FD2
:100AA000F91FE354FE4F81819281820F931F90932F
:100AB000890080938800E09116018E2FEE0F990B2C
:100AC000FC01EE0FFF1FE80FF91FE354FE4F80817A
:100AD00086FF11C0E09116018E2FEE0F990BFC01DD
:100AE000EE0FFF1FE80FF91FE354FE4F808161E016
:100AF0008F730E949800FF91EF91DF91CF91BF918A
:100B0000AF919F918F917F916F915F914F913F91A5
:100B10002F910F900FBE0F901F90189580E49CE9C5
:100B200090938900809388008FEF80931601E3CF24
:100B3000109223011092220188EE93E0A0E0B0E031
:100B40008093240190932501A0932601B09327015F
:100B500084E091E0909321018093200185EC90E066
:100B600090932D0180932C0184EC90E090932F01C1
:100B700080932E0180EC90E09093310180933001BE
:100B800081EC90E0909333018093320182EC90E00D
:100B9000909335018093340186EC90E09093370177
:100BA000809336011092390110923A0110923B0164
:100BB00010923C018091E1018C3048F591E0980F52
:100BC0009093E1018093E50190E0FC01EE0FFF1F9F
:100BD000E80FF91FE354FE4F88EB9BE0928381837B
:100BE0008091E1018C30B8F491E0980F9093E1018D
:100BF0008093E20190E0FC01EE0FFF1FE80FF91F68
:100C0000E354FE4F88EB9BE09283818308958FEF3E
:100C10008093E501E5CF8FEF8093E201089578940A
:100C200084B5826084BD84B5816084BD85B58260F1
:100C300085BD85B5816085BD80916E0081608093A2
:100C40006E0010928100809181008260809381000B
:100C5000809181008160809381008091800081601B
:100C6000809380008091B10084608093B100809176
:100C7000B00081608093B00080917A00846080939E
:100C80007A0080917A00826080937A0080917A0065
:100C9000816080937A0080917A00806880937A00E6
:100CA0001092C10061E086E00E94E40061E082E011
:100CB0000E94E40060E087E00E94E40069E070E0E8
:100CC00085EE91E00E94E10265E070E085EE91E042
:100CD0000E94790260E971E080E090E00E943A01B0
:100CE0006AE070E082EE91E00E94E10265E070E06F
:100CF00082EE91E00E94790260E971E080E090E08C
:100D00000E943A01E0913001F091310182E080834C
:100D1000E0912C01F0912D011082E0912E01F091D3
:100D20002F018FEC808310923801E0913401F09113
:100D3000350186E08083E0913201F09133018081BA
:100D400080618083E0913201F0913301808188607D
:100D50008083E0913201F09133018081806880834B
:100D6000E0913201F091330180818F7D808380E0BA
:100D7000E82E80E0F82EC5E0D0E0BE0185EE91E0DF
:100D80000E94790262E370E080E090E00E943A0104
:100D900005E010E0B80182EE91E00E9479020E9425
:100DA0008B0362E370E080E090E00E943A010F5F05
:100DB0001F4F0D33110571F762E370E080E090E0A2
:100DC0000E943A010CE310E0B80182EE91E00E942B
:100DD00079020E948B0362E370E080E090E00E9461
:100DE0003A01015011090430110571F72A96C93BE7
:100DF000D10519F668EE73E080E090E00E943A01B8
:100E0000CFEAD0E0BE0185EE91E00E94790262E374
:100E100070E080E090E00E943A0105E010E0B80147
:100E200082EE91E00E9479020E948B0362E370E0FF
:100E300080E090E00E943A010F5F1F4F0D331105D3
:100E400071F762E370E080E090E00E943A010CE309
:100E500010E0B80182EE91E00E9479020E948B03BB
:100E600062E370E080E090E00E943A0101501109D5
:100E70000430110571F72197C430D10519F660EAE5
:100E80007FE080E090E00E943A01E114F10409F46F
:100E900072CF0E94D601882309F46DCF0E94000012
:100EA0006ACF052E97FB1EF400940E94680757FD39
:100EB00007D00E94830707FC03D04EF40C94680708
:100EC00050954095309521953F4F4F4F5F4F089576
:100ED00090958095709561957F4F8F4F9F4F0895A6
:100EE0000E94A507A59F900DB49F900DA49F800D13
:100EF000911D11240895B7FF0C9470070E9470078C
:100F0000821B930B0895A1E21A2EAA1BBB1BFD01A5
:100F10000DC0AA1FBB1FEE1FFF1FA217B307E407D8
:100F2000F50720F0A21BB30BE40BF50B661F771F30
:100F3000881F991F1A9469F7609570958095909510
:100F40009B01AC01BD01CF010895A29FB001B39FE9
:100F5000C001A39F700D811D1124911DB29F700DC2
:100F6000811D1124911D0895991B79E004C0991FDA
:100F7000961708F0961B881F7A95C9F780950895F3
:100F80000E94A507B7FF0895821B930B0895EE0FEB
:0E0F9000FF1F0590F491E02D0994F894FFCF17
:100F9E00000000000C026C0199015902CA01A8015F
:060FAE00BC010D0A000069
:00000001FF
