:100000000C9463000C948B000C948B000C942D0AC0
:100010000C942D0A0C942D0A0C948B000C948B00DC
:100020000C948B000C948B000C948B000C94710935
:100030000C948B000C948B000C948B000C948B0014
:100040000C94CF080C948B000C943F090C94190964
:100050000C948B000C948B000C948B000C948B00F4
:100060000C948B000C948B000000000024002700EF
:100070002A0000000008000201000003040700003D
:1000800000000000000000000000230026002900FE
:1000900000000000250028002B00040404040404D0
:1000A0000404020202020202030303030303010227
:1000B00004081020408001020408102001020408F6
:1000C0001020A50AD00C11241FBECFEFD8E0DEBF50
:1000D000CDBF11E0A0E0B1E0E6EDFFE102C0059088
:1000E0000D92A433B107D9F722E0A4E3B1E001C037
:1000F0001D92A337B207E1F710E0C2E6D0E004C0DA
:100100002197FE010E94DD0DC136D107C9F70E947B
:10011000840B0C94DE0F0C940000833081F028F4E3
:10012000813099F08230A9F008958730A9F08830A5
:10013000C9F08430B1F4809180008F7D03C080913C
:1001400080008F7780938000089584B58F7784BD79
:10015000089584B58F7DFBCF8091B0008F77809319
:10016000B00008958091B0008F7DF9CF1F93CF9399
:10017000DF93282F30E0F901EE58FF4F8491F90109
:10018000E255FF4FD491F901E656FF4FC491CC23BD
:10019000A9F0162F81110E948D00EC2FF0E0EE0FD8
:1001A000FF1FE057FF4FA591B4918FB7F894EC91E2
:1001B000111108C0D095DE23DC938FBFDF91CF9162
:1001C0001F910895DE2BF8CFCF93DF9390E0FC01D1
:1001D000E255FF4F249186569F4FFC01849188235E
:1001E000D1F090E0880F991FFC01E859FF4FA591CD
:1001F000B491FC01E057FF4FC591D49161110EC03D
:100200009FB7F8948C91E22FE0958E238C932881F0
:10021000E223E8839FBFDF91CF9108958FB7F894D1
:10022000EC91E22BEC938FBFF6CF8E5080648093DD
:100230007C0080917A00806480937A0080917A00BB
:1002400086FDFCCF809178009091790008953FB7AA
:10025000F8948091800190918101A0918201B091E8
:10026000830126B5A89B05C02F3F19F00196A11D5B
:10027000B11D3FBFBA2FA92F982F8827BC01CD01F0
:10028000620F711D811D911D42E0660F771F881F4F
:10029000991F4A95D1F708958F929F92AF92BF927E
:1002A000CF92DF92EF92FF924B015C010E942701F7
:1002B0006B017C010E9427016C197D098E099F0941
:1002C000683E734081059105A8F321E0821A9108E8
:1002D000A108B10888EEC80E83E0D81EE11CF11C0D
:1002E00081149104A104B10429F7FF90EF90DF90ED
:1002F000CF90BF90AF909F908F900895AF92BF9294
:10030000CF92DF92EF92FF920F931F93CF93DF93E1
:100310006C017B018B01040F151FEB015E01AE1810
:10032000BF08C017D10759F06991D601ED91FC9132
:100330000190F081E02DC6010995892B79F7C5015F
:10034000DF91CF911F910F91FF90EF90DF90CF90B1
:10035000BF90AF900895FC01538D448D252F30E060
:10036000842F90E0821B930B541710F0CF960895C2
:1003700001970895FC01918D828D981761F0A28DEF
:10038000AE0FBF2FB11D5D968C91928D9F5F9F73B5
:10039000928F90E008958FEF9FEF0895FC01918D6B
:1003A000828D981731F0828DE80FF11D858D90E0D8
:1003B00008958FEF9FEF0895FC01918D228D892F75
:1003C00090E0805C9F4F821B91098F73992708955D
:1003D00088E891E00E94DC0121E0892B09F420E00B
:1003E000822F089580E090E0892B29F00E94E80197
:1003F00081110C9400000895FC01A48DA80FB92F61
:10040000B11DA35ABF4F2C91848D90E001968F733C
:100410009927848FA689B7892C93A089B1898C915B
:10042000837080648C93938D848D981306C00288AA
:10043000F389E02D80818F7D80830895EF92FF9274
:100440000F931F93CF93DF93EC0181E0888F9B8DF7
:100450008C8D98131AC0E889F989808185FF15C0B1
:100460009FB7F894EE89FF896083E889F9898081D4
:100470008370806480839FBF81E090E0DF91CF91A3
:100480001F910F91FF90EF900895F62E0B8D10E0C5
:100490000F5F1F4F0F731127E02E8C8D8E110CC034
:1004A0000FB607FCFACFE889F989808185FFF5CF7F
:1004B000CE010E94FC01F1CFEB8DEC0FFD2FF11D61
:1004C000E35AFF4FF0829FB7F8940B8FEA89FB89BC
:1004D00080818062CFCFCF93DF93EC01888D88231A
:1004E000B9F0AA89BB89E889F9898C9185FD03C097
:1004F000808186FD0DC00FB607FCF7CF8C9185FF7C
:10050000F2CF808185FFEDCFCE010E94FC01E9CFC3
:10051000DF91CF910895CF92DF92EF92FF92CF9328
:10052000DF93EC01603282E07807CCF5653B710522
:1005300014F064EB70E0898128E830E0281B310971
:1005400087FD3395220F331F220F331F6901330FAD
:10055000EE08FF088A8128E532E0281B310987FD73
:100560003395220F331F220F331F032E000C440B31
:10057000550B2C193D094E095F09DB0177FF02C0BD
:10058000B0E0A0E00E94520D24EB30E040E050E0EB
:100590000E94280DC20ED31EE41EF51EB601E8818E
:1005A000EC3070F5298188E890E0821B910927FDE5
:1005B0009395880F991F880F991F681779077CF00A
:1005C0002A8188E592E0821B910927FD9395880F87
:1005D000991F880F991F681779070CF4CB010297B0
:1005E000880F991F4FB7F8942E2F30E0F901EE0FC6
:1005F000FF1FE20FF31FEB5DFD4F928381834FBF1F
:10060000DF91CF91FF90EF90DF90CF9008951F93EF
:10061000CF93DF93EC01162F88818C3008F04EC009
:1006200061E0812F0E94E4008881282F30E0F901E9
:10063000EE0FFF1FE20FF31FEB5DFD4F1F73608195
:10064000607C612B608319821A822CE0622F0E94E9
:10065000C20D829FB001112430E020E0AB01420FB7
:10066000531FFA01EE0FFF1FE40FF51FEB5DFD4F67
:10067000908196FD16C02F5F3F4F2C30310571F7EA
:1006800081110FC01092800082E08093810010924F
:10069000850010928400B19A80916F0082608093EF
:1006A0006F00E8818E2F90E0FC01EE0FFF1FE80F36
:1006B000F91FEB5DFD4F8081806480838881DF912D
:1006C000CF911F91089520917D0130917E012817CF
:1006D000390771F490917B0180917C01981741F06A
:1006E000E0917B01F0E0E65CFE4F808190E00895B0
:1006F0008FEF9FEF08950895EF92FF920F931F934E
:10070000CF93DF93DC015C96ED90FC905D97E11454
:10071000F10479F481E090E013969C938E93129704
:1007200090E080E0DF91CF911F910F91FF90EF90CB
:1007300008955196ED91FC91529750968C91509757
:10074000982F90950FB75E962C915E97122F12708E
:1007500021FD6095F8942081112319F1282B208325
:10076000E7012197F1F728E0462F50E0308160FF44
:100770001AC0382B3083E7012197F1F7BA0175953C
:100780006795215089F7112381F080818923808327
:100790000FBF5C968D919C910197F1F781E090E0FD
:1007A000C1CF2923DCCF3923E5CF9081892BEFCF2F
:1007B00020917D0130917E012817390761F48091E5
:1007C0007C0120917B0190E0805C9F4F821B91090E
:1007D0008F739927089590E080E0089520917D011E
:1007E00030917E0128173907B9F490917B018091EF
:1007F0007C01981789F0E0917B01F0E0E65CFE4F08
:10080000808120917B0130E02F5F3F4F2F73332792
:1008100020937B0190E008958FEF9FEF08952FB70D
:10082000F8948091840190918501A0918601B09106
:1008300087012FBF8093580290935902A0935A02C8
:10084000B0935B0280E592E00E94EE0397FF26C022
:100850002FB7F8948091840190918501A091860131
:10086000B09187012FBF4091580250915902609179
:100870005A0270915B02841B950BA60BB70B40913B
:10088000540250915502609156027091570284179C
:100890009507A607B707B0F28FEF9FEF089590E096
:1008A00080E008952F923F924F925F926F927F92D5
:1008B0008F929F92AF92BF92CF92DF92EF92FF9270
:1008C0000F931F93CF93DF938EE00E941501823C1C
:1008D00091400CF0C8C061E084E00E94B60044245E
:1008E0004A9493E0592E612C712C28E7A22E20E027
:1008F000B22E32E8232E30E0332E4EEB842E40E031
:10090000942E0AEA10E08EE00E9415019C01A1E0FD
:10091000BFEF0E94CE0DA30192010E94280D690134
:100920007A018FEFC80ED11CE11CF11CE60161E0D9
:1009300086E00E94E400209799F560E086E00E943E
:10094000B60080E592E00E94D803892B31F080E563
:1009500092E00E94EE0380933901F1018491F40149
:10096000C491F801D491D11161C0809101018A3400
:1009700009F06BC08AE580933901DF91CF911F9117
:100980000F91FF90EF90DF90CF90BF90AF909F902E
:100990008F907F906F905F904F903F902F90089531
:1009A000CF3FD10511F461E0C9CFF50184918330C7
:1009B00019F140F48130B1F08230C9F0C038D1056E
:1009C00094F7BBCF873011F1883041F18430B1F713
:1009D00080918000806280938000D0928B00C092D2
:1009E0008A00AFCF84B5806884BDC7BCAACF84B568
:1009F000806284BDC8BCA5CF809180008068809350
:100A00008000D0928900C09288009BCF8091B00076
:100A100080688093B000C092B30093CF8091B00003
:100A200080628093B000C092B4008BCF81110E948D
:100A30008D00ED2FF0E0EE0FFF1FEA57FF4FA5915D
:100A4000B4918C91C82309F490CF809139018335FA
:100A500009F059CF80910101813409F48BCF8D3495
:100A600009F051CF87CF60E084E00E94B60061E0DA
:100A700086E00E94E40060E086E0DF91CF911F9164
:100A80000F91FF90EF90DF90CF90BF90AF909F902D
:100A90008F907F906F905F904F903F902F900C942D
:100AA000B6008F929F92AF92BF920F931F93CF93F6
:100AB000DF93CDB7DEB7A1970FB6F894DEBF0FBEB8
:100AC000CDBF19A2423008F44AE08E010F5D1F4FDE
:100AD000842E912CB12CA12CA50194010E94910D82
:100AE000E62FB901CA01EA3044F5E05DD801EE9382
:100AF0008D01232B242B252B79F790E080E0109794
:100B000069F0FD0101900020E9F73197AF014A1B20
:100B10005B0BBD0188E891E00E947E01A1960FB6B3
:100B2000F894DEBF0FBECDBFDF91CF911F910F9123
:100B3000BF90AF909F908F900895E95CD7CF42E02F
:100B400050E06CE271E088E891E00C947E01CF9275
:100B5000DF92EF92FF92CF93DF936C01990FEE0833
:100B6000FF08F7FE1DC06DE288E891E00E941E02BA
:100B7000EC0166277727CB016C197D098E099F0947
:100B80004AE00E945105C80FD91F0E949F058C0F93
:100B90009D1FDF91CF91FF90EF90DF90CF90089550
:100BA0004AE0C701B6010E945105EC01EECF0F9358
:100BB0001F93CF93DF93EC0188819981009759F0BF
:100BC0002A813B812617370730F081E0DF91CF91F2
:100BD0001F910F9108958B016F5F7F4F0E94080F47
:100BE000009759F0998388831B830A832C813D8168
:100BF000232B59F7FC011082E8CF80E0E7CFCF9399
:100C0000DF93EC0188819981009711F00E947F0E9B
:100C1000198218821D821C821B821A82DF91CF9159
:100C20000895CF93DF93EC0170E060E00E94D70558
:100C3000811105C0CE01DF91CF910C94FF051D827B
:100C40001C826EE271E088819981DF91CF910C94D2
:100C5000D70FEF92FF920F931F93CF93DF938C01E7
:100C60007B016115710561F0EB0109900020E9F746
:100C70002197C61BD70BBE010E94D70581110BC05F
:100C8000C8010E94FF05C801DF91CF911F910F910C
:100C9000FF90EF900895F801D583C483B701808158
:100CA00091810E94D70FEFCFFC0180819181009745
:100CB00011F00C947F0E08954F925F926F927F9285
:100CC0008F929F92AF92BF92CF92DF92EF92FF925C
:100CD0000F931F93CF93DF93CDB7DEB762970FB615
:100CE000F894DEBF0FBECDBF80E592E00E94D8032E
:100CF000892B31F080E592E00E94EE0380930101A0
:100D000010910101809100011817D1F01092380163
:100D100064E670E080E090E00E944C0188E891E099
:100D20000E946B02109300011A3409F414C11D349F
:100D300021F1113429F481E0809338010E942808C0
:100D400062E370E080E090E00E944C0162960FB692
:100D5000F894DEBF0FBECDBFDF91CF911F910F91F1
:100D6000FF90EF90DF90CF90BF90AF909F908F90CB
:100D70007F906F905F904F90089581E0809338014D
:100D800080913801882309F44DC0809101018D3490
:100D900009F048C080E592E00E94D803892B09F44D
:100DA000C3C01E861D86188A1F861A8A198ACE011C
:100DB0000D960E9411060E940F0409891A8997FD59
:100DC0001CC08A309105C9F089831A820F5F1F4FBA
:100DD000B801CE010D960E94D705882361F32D85B9
:100DE0003E8589899A89BE016F5F7F4F820F931F6D
:100DF0000E94D70F1A8B098BDECF01301105A9F4A1
:100E0000ED85FE8560E0309709F060816093010117
:100E100088E891E00E941E020E949F05CE010D9677
:100E20000E9454060E945C068BCF18861F821A8689
:100E300019861C861B86CE0107960E941106898999
:100E40009A89892B69F0ED85FE85118111826D8566
:100E50007E85CE0107960E942906ED85FE851183C9
:100E6000E988FA88CC24C394D12CE114F10421F050
:100E70006701EE24E394F12C1A8219821C821B82F2
:100E80001E821D82CE0101960E94110609891A89CF
:100E9000E016F106C0F4C016D10608F48601ED850F
:100EA000FE85E00FF11FD08010826D857E856E0D6E
:100EB0007F1DCE0101960E9429068D859E85080F13
:100EC000191FF801D08289819A81C12CD12C760119
:100ED000009719F00E94EC0C6B018B859C85892B87
:100EE000B9F00F8118856FE271E0C8010E94CE0F42
:100EF000892B19F5C6010E94A705B6018DE492E081
:100F00000E948B026EE170E080E090E00E944C0154
:100F1000CE0101960E945406CE0107960E94540607
:100F2000CE010D960E9454060E9452046EE170E0BC
:100F300080E090E00E944C0123CF61E371E0C801A2
:100F40000E94CE0F892B21F7C6010E94A705B6018A
:100F50008AE492E0D5CF81E08093380144244A941A
:100F600083E0582E612C712C80913801882309F47C
:100F7000E7CE809101018A3409F0E2CE81E10E943E
:100F800015019C01A0E6BFEF0E94CE0DA3019201C6
:100F90000E94280D49015A01FAEA8F0E911CA11CEA
:100FA000B11C909237018092360169E170E080E0D7
:100FB00090E00E944C0182E10E9415019C01AEEC80
:100FC000BFEF0E94CE0DA30192010E94280D69017E
:100FD0007A018CE3C80ED11CE11CF11CD0923501C2
:100FE000C092340169E170E080E090E00E944C0121
:100FF000C4010A97813A910528F4B4018DE492E086
:101000000E948B0269E170E080E090E00E944C0158
:10101000C6010A97C39728F4B6018AE492E00E94B9
:101020008B0269E170E080E090E00E944C010E9438
:1010300052046EE170E080E090E00E944C010E945A
:101040005C0669E170E080E090E00E944C018CCF8A
:1010500081E48093010164E670E080E090E00E940A
:101060004C0105E010E0B8018DE492E00E948B0293
:10107000C8010E94A7056EE170E080E090E00E9448
:101080004C01CAE0D0E0BE018AE492E00E948B02EB
:101090000E945204CE010E94A7050E945C06CE0168
:1010A0000E94A7056EE170E080E090E00E944C0194
:1010B0002196CD33D10539F762E370E080E090E00E
:1010C0000E944C01CCE3D0E0BE018AE492E00E9491
:1010D0008B020E9452040E945C066EE170E080E088
:1010E00090E00E944C012197C930D10569F7065F55
:1010F0001F4F093B110509F0B6CF68EE73E080E0A1
:1011000090E00E944C01CFEAD0E0BE018DE492E075
:101110000E948B026EE170E080E090E00E944C0142
:101120000AE010E0B8018AE492E00E948B020E947B
:1011300052040E945C066EE170E080E090E00E9444
:101140004C010F5F1F4F0D33110561F762E370E033
:1011500080E090E00E944C010CE310E0B8018AE4CA
:1011600092E00E948B020E9452040E945C066EE193
:1011700070E080E090E00E944C01015011090930BC
:10118000110561F72A97CB3F8FEFD80709F0BDCF44
:1011900060EA7FE080E090E00E944C015CCF1F920B
:1011A0000F920FB60F9211242F933F938F939F931B
:1011B000AF93BF938091840190918501A0918601A6
:1011C000B091870130917F0123E0230F2D3758F52F
:1011D0000196A11DB11D20937F01809384019093FE
:1011E0008501A0938601B093870180918001909141
:1011F0008101A0918201B09183010196A11DB11DD1
:101200008093800190938101A0938201B093830128
:10121000BF91AF919F918F913F912F910F900FBEF2
:101220000F901F90189526E8230F0296A11DB11D5F
:10123000D2CF1F920F920FB60F9211242F933F938C
:101240004F935F936F937F938F939F93AF93BF93CE
:10125000EF93FF9388E891E00E94FC01FF91EF91EA
:10126000BF91AF919F918F917F916F915F914F91BE
:101270003F912F910F900FBE0F901F9018951F92C6
:101280000F920FB60F9211242F938F939F93EF938A
:10129000FF93E0919801F09199018081E0919E0186
:1012A000F0919F0182FD1BC090818091A1018F5F11
:1012B0008F732091A201821741F0E091A101F0E02B
:1012C000E857FE4F958F8093A101FF91EF919F9179
:1012D0008F912F910F900FBE0F901F9018958081C6
:1012E000F4CF1F920F920FB60F9211242F933F93BA
:1012F0004F935F936F937F938F939F93AF93BF931E
:10130000CF93DF93EF93FF9380917A01C0914902CD
:10131000D0E087FF24C01092850010928400809155
:101320007A018F5F80937A0180917A01082E000CF8
:10133000990B8C179D0724F480917A018C30C4F1AD
:101340008091840090918500049680349C4908F433
:101350007AC08091840090918500049676C0809137
:101360007A01082E000C990B8C179D07C4F6E091AA
:101370007A018E2FEE0F990BFC01EE0FFF1FE80F85
:10138000F91FEB5DFD4F808186FFC9CFE0917A01A7
:101390008E2FEE0F990BFC01EE0FFF1FE80FF91FC8
:1013A000EB5DFD4F808160E08F730E94B600B7CF88
:1013B0002091840030918500E0917A018E2FEE0F0C
:1013C000990BFC01EE0FFF1FE80FF91FEB5DFD4FBE
:1013D00081819281820F931F90938900809388006E
:1013E000E0917A018E2FEE0F990BFC01EE0FFF1F9B
:1013F000E80FF91FEB5DFD4F808186FF11C0E09182
:101400007A018E2FEE0F990BFC01EE0FFF1FE80FF4
:10141000F91FEB5DFD4F808161E08F730E94B60084
:10142000FF91EF91DF91CF91BF91AF919F918F91FC
:101430007F916F915F914F913F912F910F900FBED0
:101440000F901F90189580E49CE9909389008093F9
:1014500088008FEF80937A01E3CF1F920F920FB62F
:101460000F9211242F933F934F935F936F937F932A
:101470008F939F93AF93BF93EF93FF93E0917D0181
:10148000F0917E01309749F0A685B7858585968DC8
:1014900091FF14C09C918923A1F4FF91EF91BF911A
:1014A000AF919F918F917F916F915F914F913F91FC
:1014B0002F910F900FBE0F901F9018959C9189232C
:1014C00061F7A389B4899C918589809589238C9340
:1014D000868997890197F1F7608D718DA685B7850B
:1014E000558538E020E0CB010197F1F7822F90E09D
:1014F00095958795282F4C91452309F02068315008
:1015000091F7868D81FD209580917C0190E0019678
:101510008F73992730917B01381799F0A0917C0146
:10152000B0E0A65CBE4F2C9380937C01828D938D9E
:101530000197F1F7A389B4898C919589892B8C93B4
:10154000ACCF868D8160868FF1CF10928B01109287
:101550008A0188EE93E0A0E0B0E080938C01909344
:101560008D01A0938E01B0938F012CE031E0309378
:1015700089012093880125EC30E030939501209378
:10158000940124EC30E0309397012093960120ECF5
:1015900030E0309399012093980121EC30E03093B2
:1015A0009B0120939A0122EC30E030939D0120931F
:1015B0009C0126EC30E030939F0120939E01109215
:1015C000A1011092A2011092A3011092A401109205
:1015D0005302109252028093540290935502A093AA
:1015E0005602B09357028EE191E09093510280939E
:1015F00050021092670210926602109269021092D5
:10160000680210926B0210926A0210926D021092A0
:101610006C0260916E026E7F6D7F60936E026695C4
:10162000617081E0682783E00E94B60061E083E09A
:101630000E94E400E1EBF0E0E491E0936002EDE968
:10164000F0E0E491F0E0EE0FFF1FE057FF4F8591CF
:101650009491909362028093610260E082E00E9424
:10166000E40080916E0281FD04C061E082E00E948E
:10167000B60082E080935C02E0EBF0E0E491E0935E
:101680005D02ECE9F0E0E491F0E0EE0FFF1FEA57B5
:10169000FF4F8591949190935F0280935E028091B9
:1016A00049028C3048F591E0980F9093490280935D
:1016B0004D0290E0FC01EE0FFF1FE80FF91FEB5DFC
:1016C000FD4F88EB9BE092838183809149028C30AF
:1016D000B8F491E0980F9093490280934A0290E009
:1016E000FC01EE0FFF1FE80FF91FEB5DFD4F88EBCC
:1016F0009BE09283818308958FEF80934D02E5CF25
:101700008FEF80934A020895789484B5826084BDF7
:1017100084B5816084BD85B5826085BD85B58160F5
:1017200085BD80916E00816080936E001092810073
:10173000809181008260809381008091810081602E
:1017400080938100809180008160809380008091EF
:10175000B10084608093B1008091B000816080937B
:10176000B00080917A00846080937A0080917A0042
:10177000826080937A0080917A00816080937A0001
:1017800080917A00806880937A001092C10061E0B5
:1017900086E00E94E40061E084E00E94E40060E0F2
:1017A00087E00E94E40060E080E10E94E40061E0E4
:1017B00080E10E94B60069E070E08DE492E00E9452
:1017C00007036AE570E08DE492E00E948B0260E915
:1017D00071E080E090E00E944C016AE070E08AE4F1
:1017E00092E00E94070368E270E08AE492E00E94BF
:1017F0008B0260E971E080E090E00E944C01E09192
:101800009801F091990182E08083E0919401F09138
:1018100095011082E0919601F09197018FEC808301
:101820001092A001E0919C01F0919D0186E08083DF
:10183000E0919A01F0919B01808180618083E09129
:101840009A01F0919B01808188608083E0919A01E8
:10185000F0919B01808180688083E0919A01F091F2
:101860009B0180818F7D808310926B0210926A02AF
:10187000109269021092680210926702109266023A
:101880008DE991E090936D0280936C0290915C02DF
:10189000963108F047C02DEB30E03093670220937B
:1018A00066022BE931E030936902209368022CE252
:1018B00031E030936B0220936A022091680084E04B
:1018C000983048F031E09E3008F430E081E001C00B
:1018D000880F3A95EAF7822B809368002DE630E076
:1018E000983050F02BE630E09E3030F02CE630E0BF
:1018F000963110F030E020E03093640220936302D0
:10190000292F30E0983008F03EC081E001C0880FF8
:101910009A95EAF78093650280916C0290916D022E
:101920000197F1F780916A0290916B02892B49F13E
:10193000E0917D01F0917E0182E0E035F80709F148
:10194000309739F0A389B4899C9185898095892342
:101950008C9380916E028E7F80936E0210927C0138
:1019600010927B0180E592E090937E0180937D014F
:10197000E0916302F0916402808190916502892B6D
:1019800080830E9428089E3040F42850310981E06D
:1019900001C0880F2A95EAF7BDCF2E503109F7CF45
:1019A0008EE191E0909351028093500280917D01ED
:1019B00090917E018055924071F4E0916302F09124
:1019C00064029081809165028095892380831092C2
:1019D0007E0110927D0108951F93FC0199278827AD
:1019E000BC01E89411911032E9F3193010F01E3067
:1019F000C8F31B3251F01D3249F4689406C00E94AE
:101A0000130D610F711D811D911D119110531A301D
:101A1000B0F33EF490958095709561957F4F8F4F10
:101A20009F4F1F910895592F482F372F262F660F4C
:101A3000771F881F991F660F771F881F991F620FD6
:101A4000731F841F951F660F771F881F991F0895A6
:101A5000052E97FB1EF400940E943F0D57FD07D002
:101A60000E94910D07FC03D04EF40C943F0D50954D
:101A70004095309521953F4F4F4F5F4F089590957A
:101A80008095709561957F4F8F4F9F4F08950E946D
:101A9000B30DA59F900DB49F900DA49F800D911D37
:101AA00011240895B7FF0C94470D0E94470D821B27
:101AB000930B08952F923F924F925F926F927F9275
:101AC0008F929F92AF92BF92CF92DF92EF92FF924E
:101AD0000F931F93CF93DF93CDB7DEB7CA1BDB0BFA
:101AE0000FB6F894DEBF0FBECDBF09942A8839889F
:101AF00048885F846E847D848C849B84AA84B984A6
:101B0000C884DF80EE80FD800C811B81AA81B981B1
:101B1000CE0FD11D0FB6F894DEBF0FBECDBFED01C5
:101B20000895A1E21A2EAA1BBB1BFD010DC0AA1F1E
:101B3000BB1FEE1FFF1FA217B307E407F50720F036
:101B4000A21BB30BE40BF50B661F771F881F991FB1
:101B50001A9469F760957095809590959B01AC01FA
:101B6000BD01CF010895A29FB001B39FC001A39F03
:101B7000700D811D1124911DB29F700D811D1124C6
:101B8000911D0895991B79E004C0991F961708F0DC
:101B9000961B881F7A95C9F7809508950E94B30D0A
:101BA000332312F48A1B9B0B0C94D80D0E94B30DA7
:101BB000B7FF0895821B930B0895EE0FFF1F05904A
:101BC000F491E02D09940F931F93CF93DF9382300C
:101BD000910510F482E090E0E0917102F0917202C0
:101BE00030E020E0B0E0A0E0309799F42115310515
:101BF00009F44AC0281B390B24303105D8F58A81F5
:101C00009B816115710589F1FB0193838283FE013C
:101C100011C0408151810281138148175907E0F0BA
:101C20004817590799F4109761F012960C93129780
:101C300013961C933296CF01DF91CF911F910F9194
:101C400008950093710210937202F4CF21153105AB
:101C500051F04217530738F0A901DB019A01BD0189
:101C6000DF01F801C1CFEF01F9CF909372028093A9
:101C70007102CDCFFE01E20FF31F819391932250A9
:101C8000310939832883D7CF20916F0230917002B8
:101C9000232B41F42091040130910501309370020F
:101CA00020936F022091020130910301211531052B
:101CB00041F42DB73EB74091060150910701241B16
:101CC000350BE0916F02F0917002E217F307A0F478
:101CD0002E1B3F0B2817390778F0AC014E5F5F4F82
:101CE0002417350748F04E0F5F1F50937002409342
:101CF0006F02819391939FCFF0E0E0E09CCFCF9370
:101D0000DF930097E9F0FC01329713821282A091D1
:101D10007102B0917202ED0130E020E01097A1F461
:101D200020813181820F931F20916F0230917002C8
:101D30002817390709F061C0F0937002E0936F0231
:101D4000DF91CF910895EA01CE17DF07E8F54A81C8
:101D50005B819E0141155105B1F7E901FB83EA83DF
:101D600049915991C40FD51FEC17FD0761F480818B
:101D700091810296840F951FE9019983888382815E
:101D800093819B838A83F0E0E0E012968D919C9191
:101D900013970097B9F52D913C911197CD010296BB
:101DA000820F931F20916F0230917002281739071C
:101DB00039F6309751F51092720210927102B09379
:101DC0007002A0936F02BCCFD383C2834081518144
:101DD000840F951FC817D90761F44E5F5F4F888144
:101DE0009981480F591F518340838A819B81938336
:101DF00082832115310509F0B0CFF0937202E09390
:101E000071029ECFFD01DC01C0CF13821282D7CFB9
:101E1000B0E0A0E0EEE0FFE00C945C0D8C010097D8
:101E200051F4CB010E94E30D8C01C801CDB7DEB7A0
:101E3000E0E10C94780DFC01E60FF71F9C012250A5
:101E40003109E217F30708F49DC0D901CD91DC9167
:101E50001197C617D70798F0C530D10530F3CE01DA
:101E600004978617970708F3C61BD70B2297C193D1
:101E7000D1936D937C93CF010E947F0ED6CF5B01EF
:101E8000AC1ABD0A4C018C0E9D1EA0917102B0913E
:101E90007202512C412CF12CE12C109731F58091DC
:101EA0006F02909170028815990509F05CC0461682
:101EB000570608F058C080910201909103010097E5
:101EC00041F48DB79EB74091060150910701841BE4
:101ED000950BE817F90708F055C0F0937002E093EE
:101EE0006F02F90171836083A0CF8D919C9111974E
:101EF00012966C90129713967C901397A815B905BB
:101F000059F56C0142E0C40ED11CCA14DB0420F167
:101F1000AC014A195B09DA011296159780F06282CA
:101F2000738251834083D9016D937C93E114F10452
:101F300071F0D7011396FC93EE93129776CF229609
:101F40008C0F9D1FF90191838083F301EFCFF093F4
:101F50007202E093710269CF4816590608F42C0109
:101F60007D01D3019ACFCB010E94E30D7C01009744
:101F700049F0AE01B8010E94C50FC8010E947F0E52
:101F8000870153CF10E000E050CFFB01DC0102C01D
:101F900001900D9241505040D8F70895FB01DC01AB
:101FA0008D91019080190110D9F3990B0895FB01CF
:101FB000DC0101900D920020E1F7089510E0C2E6E7
:101FC000D0E004C0FE010E94DD0D2196C336D1078A
:061FD000C9F7F894FFCFF1
:101FD600204D000073028000000000001E027E01FA
:101FE600AB016B02DC01BA01CE01000000007C03EC
:101FF6007E014F047B03D803EE0363030D0A0048FA
:042006000056000080
:00000001FF
