:100000000C9463000C948B000C948B000C943A0AB3
:100010000C943A0A0C943A0A0C948B000C948B00C2
:100020000C948B000C948B000C948B000C947E0928
:100030000C948B000C948B000C948B000C948B0014
:100040000C94DC080C948B000C944C090C9426093D
:100050000C948B000C948B000C948B000C948B00F4
:100060000C948B000C948B000000000024002700EF
:100070002A0000000008000201000003040700003D
:1000800000000000000000000000230026002900FE
:1000900000000000250028002B00040404040404D0
:1000A0000404020202020202030303030303010227
:1000B00004081020408001020408102001020408F6
:1000C0001020B20AE80C11241FBECFEFD8E0DEBF2B
:1000D000CDBF11E0A0E0B1E0E6E0F0E202C00590A3
:1000E0000D92A233B107D9F722E0A2E3B1E001C03B
:1000F0001D92A237B207E1F710E0C2E6D0E004C0DB
:100100002197FE010E94F50DC136D107C9F70E9463
:10011000910B0C94F60F0C940000833081F028F4BE
:10012000813099F08230A9F008958730A9F08830A5
:10013000C9F08430B1F4809180008F7D03C080913C
:1001400080008F7780938000089584B58F7784BD79
:10015000089584B58F7DFBCF8091B0008F77809319
:10016000B00008958091B0008F7DF9CF1F93CF9399
:10017000DF93282F30E0F901EE58FF4F8491F90109
:10018000E255FF4FD491F901E656FF4FC491CC23BD
:10019000A9F0162F81110E948D00EC2FF0E0EE0FD8
:1001A000FF1FE057FF4FA591B4918FB7F894EC91E2
:1001B000111108C0D095DE23DC938FBFDF91CF9162
:1001C0001F910895DE2BF8CFCF93DF9390E0FC01D1
:1001D000E255FF4F249186569F4FFC01849188235E
:1001E000D1F090E0880F991FFC01E859FF4FA591CD
:1001F000B491FC01E057FF4FC591D49161110EC03D
:100200009FB7F8948C91E22FE0958E238C932881F0
:10021000E223E8839FBFDF91CF9108958FB7F894D1
:10022000EC91E22BEC938FBFF6CF8E5080648093DD
:100230007C0080917A00806480937A0080917A00BB
:1002400086FDFCCF809178009091790008953FB7AA
:10025000F89480917F0190918001A0918101B091EB
:10026000820126B5A89B05C02F3F19F00196A11D5C
:10027000B11D3FBFBA2FA92F982F8827BC01CD01F0
:10028000620F711D811D911D42E0660F771F881F4F
:10029000991F4A95D1F708958F929F92AF92BF927E
:1002A000CF92DF92EF92FF924B015C010E942701F7
:1002B0006B017C010E9427016C197D098E099F0941
:1002C000683E734081059105A8F321E0821A9108E8
:1002D000A108B10888EEC80E83E0D81EE11CF11C0D
:1002E00081149104A104B10429F7FF90EF90DF90ED
:1002F000CF90BF90AF909F908F900895AF92BF9294
:10030000CF92DF92EF92FF920F931F93CF93DF93E1
:100310006C017B018B01040F151FEB015E01AE1810
:10032000BF08C017D10759F06991D601ED91FC9132
:100330000190F081E02DC6010995892B79F7C5015F
:10034000DF91CF911F910F91FF90EF90DF90CF90B1
:10035000BF90AF900895FC01538D448D252F30E060
:10036000842F90E0821B930B541710F0CF960895C2
:1003700001970895FC01918D828D981761F0A28DEF
:10038000AE0FBF2FB11D5D968C91928D9F5F9F73B5
:10039000928F90E008958FEF9FEF0895FC01918D6B
:1003A000828D981731F0828DE80FF11D858D90E0D8
:1003B00008958FEF9FEF0895FC01918D228D892F75
:1003C00090E0805C9F4F821B91098F73992708955D
:1003D00087E891E00E94DC0121E0892B09F420E00C
:1003E000822F089580E090E0892B29F00E94E80197
:1003F00081110C9400000895FC01A48DA80FB92F61
:10040000B11DA35ABF4F2C91848D90E001968F733C
:100410009927848FA689B7892C93A089B1898C915B
:10042000837080648C93938D848D981306C00288AA
:10043000F389E02D80818F7D80830895EF92FF9274
:100440000F931F93CF93DF93EC0181E0888F9B8DF7
:100450008C8D98131AC0E889F989808185FF15C0B1
:100460009FB7F894EE89FF896083E889F9898081D4
:100470008370806480839FBF81E090E0DF91CF91A3
:100480001F910F91FF90EF900895F62E0B8D10E0C5
:100490000F5F1F4F0F731127E02E8C8D8E110CC034
:1004A0000FB607FCFACFE889F989808185FFF5CF7F
:1004B000CE010E94FC01F1CFEB8DEC0FFD2FF11D61
:1004C000E35AFF4FF0829FB7F8940B8FEA89FB89BC
:1004D00080818062CFCFCF93DF93EC01888D88231A
:1004E000B9F0AA89BB89E889F9898C9185FD03C097
:1004F000808186FD0DC00FB607FCF7CF8C9185FF7C
:10050000F2CF808185FFEDCFCE010E94FC01E9CFC3
:10051000DF91CF910895CF92DF92EF92FF92CF9328
:10052000DF93EC01603282E07807CCF5653B710522
:1005300014F064EB70E0898128E830E0281B310971
:1005400087FD3395220F331F220F331F6901330FAD
:10055000EE08FF088A8128E532E0281B310987FD73
:100560003395220F331F220F331F032E000C440B31
:10057000550B2C193D094E095F09DB0177FF02C0BD
:10058000B0E0A0E00E946A0D24EB30E040E050E0D3
:100590000E94400DC20ED31EE41EF51EB601E88176
:1005A000EC3070F5298188E890E0821B910927FDE5
:1005B0009395880F991F880F991F681779077CF00A
:1005C0002A8188E592E0821B910927FD9395880F87
:1005D000991F880F991F681779070CF4CB010297B0
:1005E000880F991F4FB7F8942E2F30E0F901EE0FC6
:1005F000FF1FE20FF31FEC5DFD4F928381834FBF1E
:10060000DF91CF91FF90EF90DF90CF9008951F93EF
:10061000CF93DF93EC01162F88818C3008F04EC009
:1006200061E0812F0E94E4008881282F30E0F901E9
:10063000EE0FFF1FE20FF31FEC5DFD4F1F73608194
:10064000607C612B608319821A822CE0622F0E94E9
:10065000DA0D829FB001112430E020E0AB01420F9F
:10066000531FFA01EE0FFF1FE40FF51FEC5DFD4F66
:10067000908196FD16C02F5F3F4F2C30310571F7EA
:1006800081110FC01092800082E08093810010924F
:10069000850010928400B19A80916F0082608093EF
:1006A0006F00E8818E2F90E0FC01EE0FFF1FE80F36
:1006B000F91FEC5DFD4F8081806480838881DF912C
:1006C000CF911F91089520917C0130917D012817D1
:1006D000390771F490917A0180917B01981741F06C
:1006E000E0917A01F0E0E75CFE4F808190E00895B0
:1006F0008FEF9FEF08950895EF92FF920F931F934E
:10070000CF93DF93DC015C96ED90FC905D97E11454
:10071000F10479F481E090E013969C938E93129704
:1007200090E080E0DF91CF911F910F91FF90EF90CB
:1007300008955196ED91FC91529750968C91509757
:10074000982F90950FB75E962C915E97122F12708E
:1007500021FD6095F8942081112319F1282B208325
:10076000E7012197F1F728E0462F50E0308160FF44
:100770001AC0382B3083E7012197F1F7BA0175953C
:100780006795215089F7112381F080818923808327
:100790000FBF5C968D919C910197F1F781E090E0FD
:1007A000C1CF2923DCCF3923E5CF9081892BEFCF2F
:1007B00020917C0130917D012817390761F48091E7
:1007C0007B0120917A0190E0805C9F4F821B910910
:1007D0008F739927089590E080E0089520917C011F
:1007E00030917D0128173907B9F490917A018091F1
:1007F0007B01981789F0E0917A01F0E0E75CFE4F09
:10080000808120917A0130E02F5F3F4F2F73332793
:1008100020937A0190E008958FEF9FEF08952FB70E
:10082000F8948091830190918401A0918501B09109
:1008300086012FBF8093570290935802A0935902CC
:10084000B0935A028FE492E00E94EE0397FF26C015
:100850002FB7F8948091830190918401A091850134
:10086000B09186012FBF409157025091580260917C
:10087000590270915A02841B950BA60BB70B40913D
:1008800053025091540260915502709156028417A0
:100890009507A607B707B0F28FEF9FEF089590E096
:1008A00080E008958F929F92AF92BF920F931F9313
:1008B000CF93DF93CDB7DEB7A1970FB6F894DEBF25
:1008C0000FBECDBF19A2423008F44AE08E010F5D81
:1008D0001F4F842E912CB12CA12CA50194010E94B4
:1008E000A90DE62FB901CA01EA3044F5E05DD8014F
:1008F000EE938D01232B242B252B79F790E080E0BC
:10090000109769F0FD0101900020E9F73197AF01E0
:100910004A1B5B0BBD0187E891E00E947E01A19616
:100920000FB6F894DEBF0FBECDBFDF91CF911F9100
:100930000F91BF90AF909F908F900895E95CD7CFB3
:10094000CF92DF92EF92FF92CF93DF936B017C0106
:100950006DE287E891E00E941E02EC01662777278E
:10096000CB016C197D098E099F094AE00E9452044F
:100970008C0F9D1FDF91CF91FF90EF90DF90CF9074
:10098000089542E050E06AE271E087E891E00C945B
:100990007E01CF93DF93BC01990F880B990B97FFD2
:1009A0000AC00E94A004EC010E94C1048C0F9D1F8C
:1009B000DF91CF9108954AE00E945204F4CF2F9224
:1009C0003F924F925F926F927F928F929F92AF92DF
:1009D000BF92CF92DF92EF92FF920F931F93CF932C
:1009E000DF938EE00E9415019C01A1E0BFEF0E9401
:1009F000E60D2FEF33E040E050E00E94400DCA01C9
:100A0000B90161507F4F8F4F9F4F97FF78C00E9471
:100A1000A0040E94C1048EE00E941501823C914016
:100A20000CF0D4C061E084E00E94B60044244A94F3
:100A300093E0592E612C712C28E7A22E20E0B22ED3
:100A400032E8232E30E0332E4EEB842E40E0942EFD
:100A50000AEA10E08EE00E9415019C01A1E0BFEFC0
:100A60000E94E60DA30192010E94400D69017A01E6
:100A70008FEFC80ED11CE11CF11CE60161E086E09D
:100A80000E94E400209709F03EC060E086E00E94EA
:100A9000B6008FE492E00E94D803892B31F08FE4F6
:100AA00092E00E94EE0380933801F1018491F401F9
:100AB000C491F801D491D1116CC0809137018A346E
:100AC00009F076C08AE58093380161E086E00E94F3
:100AD000E40060E086E0DF91CF911F910F91FF90DD
:100AE000EF90DF90CF90BF90AF909F908F907F90CE
:100AF0006F905F904F903F902F900C94B6004AE01B
:100B00000E94520486CFCF3FD10511F461E0BECFE1
:100B1000F5018491833019F140F48130B1F08230D5
:100B2000C9F0C038D10594F7B0CF873011F18830C3
:100B300041F18430B1F78091800080628093800021
:100B4000D0928B00C0928A00A4CF84B5806884BD07
:100B5000C7BC9FCF84B5806284BDC8BC9ACF80914A
:100B60008000806880938000D0928900C0928800C5
:100B700090CF8091B00080688093B000C092B300A5
:100B800088CF8091B00080628093B000C092B400A2
:100B900080CF81110E948D00ED2FF0E0EE0FFF1F3E
:100BA000EA57FF4FA591B4918C91C82309F485CFE2
:100BB00080913801833509F04DCF80913701813420
:100BC00009F480CF8D3409F045CF7CCF60E084E01C
:100BD0000E94B6007ACF0F931F93CF93DF93EC015F
:100BE00088819981009759F02A813B812617370720
:100BF00030F081E0DF91CF911F910F9108958B012B
:100C00006F5F7F4F0E94200F009759F09983888370
:100C10001B830A832C813D81232B59F7FC01108211
:100C2000E8CF80E0E7CFCF93DF93EC018881998113
:100C3000009711F00E94970E198218821D821C8263
:100C40001B821A82DF91CF910895CF93DF93EC013D
:100C500070E060E00E94EB05811105C0CE01DF91DC
:100C6000CF910C9413061D821C826CE271E0888186
:100C70009981DF91CF910C94EF0FEF92FF920F9338
:100C80001F93CF93DF938C017B016115710561F098
:100C9000EB0109900020E9F72197C61BD70BBE0195
:100CA0000E94EB0581110BC0C8010E941306C80108
:100CB000DF91CF911F910F91FF90EF900895F80170
:100CC000D583C483B701808191810E94EF0FEFCF5C
:100CD000FC0180819181009711F00C94970E08958A
:100CE0004F925F926F927F928F929F92AF92BF923C
:100CF000CF92DF92EF92FF920F931F93CF93DF93E8
:100D0000CDB7DEB762970FB6F894DEBF0FBECDBF8A
:100D10008FE492E00E94D803892B09F417C18FE475
:100D200092E00E94EE03813409F0C2C08093370143
:100D300081E08093360180913601882309F400C157
:100D400005E010E0B8018CE492E00E948B026EE1B5
:100D500070E080E090E00E944C016AE0E62EF12C09
:100D6000B70189E492E00E948B020E94DF040E9496
:100D700070066EE170E080E090E00E944C0180918E
:100D80003601882309F4DCC08FEFE81AF80AEDE396
:100D9000EE16F10429F762E370E080E090E00E9433
:100DA0004C015CE3E52EF12CB70189E492E00E944E
:100DB0008B020E94DF040E9470066EE170E080E00A
:100DC00090E00E944C0180913601882309F4B8C05C
:100DD000F1E0EF1AF10889E0E816F10429F7065F5F
:100DE0001F4F093B110509F0ADCF68EE73E080E0BD
:100DF00090E00E944C010FEA10E0B8018CE492E010
:100E00000E948B026EE170E080E090E00E944C0155
:100E10004AE0E42EF12CB70189E492E00E948B02B3
:100E20000E94DF040E9470066EE170E080E090E0B6
:100E30000E944C0180913601882309F481C0EFEFB4
:100E4000EE1AFE0AFDE3EF16F10429F762E370E003
:100E500080E090E00E944C013CE3E32EF12CB701CE
:100E600089E492E00E948B020E94DF040E947006D7
:100E70006EE170E080E090E00E944C0180913601CC
:100E8000882309F45DC081E0E81AF108E9E0EE1674
:100E9000F10429F70A5011090B3FFFEF1F0709F072
:100EA000ACCF60EA7FE080E090E00E944C0143CF4D
:100EB0008D3409F0FEC08093370181E080933601C4
:100EC000809136018823D1F18FE492E00E94D8030B
:100ED000892B09F4D9C01E861D86188A1F861A8A96
:100EE000198ACE010D960E9425060E940F040989D9
:100EF0001A8997FD1CC08A309105C9F089831A822E
:100F00000F5F1F4FB801CE010D960E94EB0588239D
:100F100061F32D853E8589899A89BE016F5F7F4F78
:100F2000820F931F0E94EF0F1A8B098BDECF0130C7
:100F3000110549F5CE010D960E9468060E947006C3
:100F400062E370E080E090E00E944C0162E370E0B8
:100F500080E090E00E944C0162960FB6F894DEBFEC
:100F60000FBECDBFDF91CF911F910F91FF90EF90FA
:100F7000DF90CF90BF90AF909F908F907F906F90B9
:100F80005F904F90089518861F821A8619861C86D6
:100F90001B86CE0107960E94250689899A89892B8E
:100FA00069F0ED85FE85118111826D857E85CE010A
:100FB00007960E943D06ED85FE851183E988FA8833
:100FC000CC24C394D12CE114F10421F06701EE2468
:100FD000E394F12C1A8219821C821B821E821D82CC
:100FE000CE0101960E94250609891A89E016F106AC
:100FF000C0F4C016D10608F48601ED85FE85E00F29
:10100000F11FD08010826D857E856E0D7F1DCE0113
:1010100001960E943D068D859E85080F191FF801D7
:10102000D08289819A81C12CD12C7601009719F048
:101030000E94040D6B010E94DF048B859C85892B27
:10104000B9F00F8118856DE271E0C8010E94E60FCA
:10105000892B09F5C6010E94C904B6018CE492E00F
:101060000E948B026EE170E080E090E00E944C01F3
:10107000CE0101960E946806CE0107960E9468067E
:10108000CE010D960E9468066EE170E080E090E06F
:101090000E944C0115CF6FE271E0C8010E94E60F7B
:1010A000892B31F7C6010E94C904B60189E492E098
:1010B000D7CF8A3409F04ACF8093370181E08093FB
:1010C000360144244A9483E0582E612C712C80917F
:1010D0003601882309F434CF81E10E9415019C0177
:1010E000A0E6BFEF0E94E60DA30192010E94400D11
:1010F00049015A01FAEA8F0E911CA11CB11C909271
:1011000035018092340169E170E080E090E00E9456
:101110004C0182E10E9415019C01AEECBFEF0E94E0
:10112000E60DA30192010E94400D69017A018CE352
:10113000C80ED11CE11CF11CD0923301C0923201C7
:1011400069E170E080E090E00E944C01C4010A97E0
:10115000813A910528F4B4018CE492E00E948B025C
:1011600069E170E080E090E00E944C01C6010A97BE
:10117000C39728F4B60189E492E00E948B0269E1EA
:1011800070E080E090E00E944C010E94DF046EE17C
:1011900070E080E090E00E944C010E94700669E1DE
:1011A00070E080E090E00E944C0169E170E080E036
:1011B00090E00E944C018BCF1F920F920FB60F92BE
:1011C00011242F933F938F939F93AF93BF9380915D
:1011D000830190918401A0918501B09186013091A5
:1011E0007E0123E0230F2D3758F50196A11DB11D77
:1011F00020937E018093830190938401A0938501C5
:10120000B093860180917F0190918001A09181012E
:10121000B09182010196A11DB11D80937F01909331
:101220008001A0938101B0938201BF91AF919F9102
:101230008F913F912F910F900FBE0F901F90189597
:1012400026E8230F0296A11DB11DD2CF1F920F9247
:101250000FB60F9211242F933F934F935F936F9389
:101260007F938F939F93AF93BF93EF93FF9387E801
:1012700091E00E94FC01FF91EF91BF91AF919F918E
:101280008F917F916F915F914F913F912F910F902F
:101290000FBE0F901F9018951F920F920FB60F92CE
:1012A00011242F938F939F93EF93FF93E0919701D6
:1012B000F09198018081E0919D01F0919E0182FD65
:1012C0001BC090818091A0018F5F8F732091A1013D
:1012D000821741F0E091A001F0E0E957FE4F958FB1
:1012E0008093A001FF91EF919F918F912F910F908B
:1012F0000FBE0F901F9018958081F4CF1F920F9210
:101300000FB60F9211242F933F934F935F936F93D8
:101310007F938F939F93AF93BF93CF93DF93EF937D
:10132000FF9380917901C0914802D0E087FF24C0EB
:101330001092850010928400809179018F5F8093D4
:10134000790180917901082E000C990B8C179D076B
:1013500024F4809179018C30C4F1809184009091C3
:101360008500049680349C4908F47AC080918400FA
:1013700090918500049676C080917901082E000C2A
:10138000990B8C179D07C4F6E09179018E2FEE0F13
:10139000990BFC01EE0FFF1FE80FF91FEC5DFD4FED
:1013A000808186FFC9CFE09179018E2FEE0F990BD6
:1013B000FC01EE0FFF1FE80FF91FEC5DFD4F808170
:1013C00060E08F730E94B600B7CF20918400309107
:1013D0008500E09179018E2FEE0F990BFC01EE0F45
:1013E000FF1FE80FF91FEC5DFD4F81819281820F95
:1013F000931F9093890080938800E09179018E2F4C
:10140000EE0F990BFC01EE0FFF1FE80FF91FEC5DCB
:10141000FD4F808186FF11C0E09179018E2FEE0F84
:10142000990BFC01EE0FFF1FE80FF91FEC5DFD4F5C
:10143000808161E08F730E94B600FF91EF91DF9190
:10144000CF91BF91AF919F918F917F916F915F915C
:101450004F913F912F910F900FBE0F901F901895B5
:1014600080E49CE990938900809388008FEF8093BB
:101470007901E3CF1F920F920FB60F9211242F9391
:101480003F934F935F936F937F938F939F93AF930C
:10149000BF93EF93FF93E0917C01F0917D01309732
:1014A00049F0A685B7858585968D91FF14C09C91DE
:1014B0008923A1F4FF91EF91BF91AF919F918F91FB
:1014C0007F916F915F914F913F912F910F900FBE40
:1014D0000F901F9018959C91892361F7A389B48977
:1014E0009C918589809589238C938689978901971A
:1014F000F1F7608D718DA685B785558538E020E0C0
:10150000CB010197F1F7822F90E095958795282FD1
:101510004C91452309F02068315091F7868D81FD6B
:10152000209580917B0190E001968F7399273091EF
:101530007A01381799F0A0917B01B0E0A75CBE4F0B
:101540002C9380937B01828D938D0197F1F7A38972
:10155000B4898C919589892B8C93ACCF868D8160D1
:10156000868FF1CF10928A011092890188EE93E064
:10157000A0E0B0E080938B0190938C01A0938D014B
:10158000B0938E012AE031E03093880120938701E7
:1015900025EC30E0309394012093930124EC30E06B
:1015A000309396012093950120EC30E03093980120
:1015B0002093970121EC30E030939A012093990118
:1015C00022EC30E030939C0120939B0126EC30E02C
:1015D00030939E0120939D011092A0011092A101D1
:1015E0001092A2011092A301109252021092510285
:1015F0008093530290935402A0935502B0935602E5
:101600008CE191E09093500280934F021092660219
:1016100010926502109268021092670210926A029C
:101620001092690210926C0210926B0260916D022E
:101630006E7F6D7F60936D026695617081E06827B3
:1016400083E00E94B60061E083E00E94E400E1EBE9
:10165000F0E0E491E0935F02EDE9F0E0E491F0E086
:10166000EE0FFF1FE057FF4F859194919093610219
:101670008093600260E082E00E94E40080916D024D
:1016800081FD04C061E082E00E94B60082E08093A8
:101690005B02E0EBF0E0E491E0935C02ECE9F0E067
:1016A000E491F0E0EE0FFF1FEA57FF4F8591949110
:1016B00090935E0280935D02809148028C3048F5E1
:1016C00091E0980F9093480280934C0290E0FC01C7
:1016D000EE0FFF1FE80FF91FEC5DFD4F88EB9BE05D
:1016E00092838183809148028C30B8F491E0980F06
:1016F000909348028093490290E0FC01EE0FFF1F97
:10170000E80FF91FEC5DFD4F88EB9BE0928381832E
:1017100008958FEF80934C02E5CF8FEF80934902BD
:101720000895789484B5826084BD84B5816084BD59
:1017300085B5826085BD85B5816085BD80916E006F
:10174000816080936E0010928100809181008260A0
:1017500080938100809181008160809381008091DD
:1017600080008160809380008091B10084608093CC
:10177000B1008091B00081608093B00080917A00C8
:10178000846080937A0080917A00826080937A00EE
:1017900080917A00816080937A0080917A008068DD
:1017A00080937A001092C10061E086E00E94E4001C
:1017B00061E084E00E94E40060E087E00E94E400D1
:1017C00060E080E10E94E40061E080E10E94B600F8
:1017D00069E070E08CE492E00E9407036AE570E043
:1017E0008CE492E00E948B0260E971E080E090E07E
:1017F0000E944C016AE070E089E492E00E940703D5
:1018000068E270E089E492E00E948B0260E971E096
:1018100080E090E00E944C01E0919701F0919801E6
:1018200082E08083E0919301F09194011082E09135
:101830009501F09196018FEC808310929F01E091C9
:101840009B01F0919C0186E08083E0919901F091E9
:101850009A01808180618083E0919901F0919A01E1
:10186000808188608083E0919901F0919A01808164
:1018700080688083E0919901F0919A0180818F7D49
:10188000808310926A02109269021092680210928C
:10189000670210926602109265028DE991E09093C2
:1018A0006C0280936B0290915B02963108F047C006
:1018B0002DEB30E030936602209365022BE931E096
:1018C00030936802209367022CE231E030936A0281
:1018D000209369022091680084E0983048F031E05C
:1018E0009E3008F430E081E001C0880F3A95EAF7B5
:1018F000822B809368002DE630E0983050F02BE684
:1019000030E09E3030F02CE630E0963110F030E0E0
:1019100020E03093630220936202292F30E0983058
:1019200008F049C081E001C0880F9A95EAF78093DA
:10193000640280916B0290916C020197F1F78091A3
:10194000690290916A02892B49F1E0917C01F09142
:101950007D0182E0EF34F80709F1309739F0A3896F
:10196000B4899C918589809589238C9380916D029F
:101970008E7F80936D0210927B0110927A018FE42A
:1019800092E090937D0180937C01E0916202F0915E
:101990006302808190916402892B8083C0E0D0E053
:1019A0000E9470062097E1F30E94E8018823C1F3AA
:1019B0000E940000F5CF9E3040F42850310981E0AC
:1019C00001C0880F2A95EAF7B2CF2E503109F7CF20
:1019D0008CE191E09093500280934F0280917C01C2
:1019E00090917D018F54924071F4E0916202F091E8
:1019F0006302908180916402809589238083109294
:101A00007D0110927C0108951F93FC01992788277E
:101A1000BC01E89411911032E9F3193010F01E3036
:101A2000C8F31B3251F01D3249F4689406C00E947D
:101A30002B0D610F711D811D911D119110531A30D5
:101A4000B0F33EF490958095709561957F4F8F4FE0
:101A50009F4F1F910895592F482F372F262F660F1C
:101A6000771F881F991F660F771F881F991F620FA6
:101A7000731F841F951F660F771F881F991F089576
:101A8000052E97FB1EF400940E94570D57FD07D0BA
:101A90000E94A90D07FC03D04EF40C94570D5095ED
:101AA0004095309521953F4F4F4F5F4F089590954A
:101AB0008095709561957F4F8F4F9F4F08950E943D
:101AC000CB0DA59F900DB49F900DA49F800D911DEF
:101AD00011240895B7FF0C945F0D0E945F0D821BC7
:101AE000930B08952F923F924F925F926F927F9245
:101AF0008F929F92AF92BF92CF92DF92EF92FF921E
:101B00000F931F93CF93DF93CDB7DEB7CA1BDB0BC9
:101B10000FB6F894DEBF0FBECDBF09942A8839886E
:101B200048885F846E847D848C849B84AA84B98475
:101B3000C884DF80EE80FD800C811B81AA81B98181
:101B4000CE0FD11D0FB6F894DEBF0FBECDBFED0195
:101B50000895A1E21A2EAA1BBB1BFD010DC0AA1FEE
:101B6000BB1FEE1FFF1FA217B307E407F50720F006
:101B7000A21BB30BE40BF50B661F771F881F991F81
:101B80001A9469F760957095809590959B01AC01CA
:101B9000BD01CF010895A29FB001B39FC001A39FD3
:101BA000700D811D1124911DB29F700D811D112496
:101BB000911D0895991B79E004C0991F961708F0AC
:101BC000961B881F7A95C9F7809508950E94CB0DC2
:101BD000332312F48A1B9B0B0C94F00D0E94CB0D47
:101BE000B7FF0895821B930B0895EE0FFF1F05901A
:101BF000F491E02D09940F931F93CF93DF938230DC
:101C0000910510F482E090E0E0917002F091710291
:101C100030E020E0B0E0A0E0309799F421153105E4
:101C200009F44AC0281B390B24303105D8F58A81C4
:101C30009B816115710589F1FB0193838283FE010C
:101C400011C0408151810281138148175907E0F08A
:101C50004817590799F4109761F012960C93129750
:101C600013961C933296CF01DF91CF911F910F9164
:101C700008950093700210937102F4CF211531057D
:101C800051F04217530738F0A901DB019A01BD0159
:101C9000DF01F801C1CFEF01F9CF9093710280937A
:101CA0007002CDCFFE01E20FF31F8193919322507A
:101CB000310939832883D7CF20916E0230916F028A
:101CC000232B41F4209102013091030130936F02E4
:101CD00020936E0220910001309101012115310500
:101CE00041F42DB73EB74091040150910501241BEA
:101CF000350BE0916E02F0916F02E217F307A0F44A
:101D00002E1B3F0B2817390778F0AC014E5F5F4F51
:101D10002417350748F04E0F5F1F50936F02409312
:101D20006E02819391939FCFF0E0E0E09CCFCF9340
:101D3000DF930097E9F0FC01329713821282A091A1
:101D40007002B0917102ED0130E020E01097A1F433
:101D500020813181820F931F20916E0230916F029A
:101D60002817390709F061C0F0936F02E0936E0203
:101D7000DF91CF910895EA01CE17DF07E8F54A8198
:101D80005B819E0141155105B1F7E901FB83EA83AF
:101D900049915991C40FD51FEC17FD0761F480815B
:101DA00091810296840F951FE9019983888382812E
:101DB00093819B838A83F0E0E0E012968D919C9161
:101DC00013970097B9F52D913C911197CD0102968B
:101DD000820F931F20916E0230916F0228173907EE
:101DE00039F6309751F51092710210927002B0934B
:101DF0006F02A0936E02BCCFD383C2834081518116
:101E0000840F951FC817D90761F44E5F5F4F888113
:101E10009981480F591F518340838A819B81938305
:101E200082832115310509F0B0CFF0937102E09360
:101E300070029ECFFD01DC01C0CF13821282D7CF8A
:101E4000B0E0A0E0E6E2FFE00C94740D8C01009796
:101E500051F4CB010E94FB0D8C01C801CDB7DEB758
:101E6000E0E10C94900DFC01E60FF71F9C0122505D
:101E70003109E217F30708F49DC0D901CD91DC9137
:101E80001197C617D70798F0C530D10530F3CE01AA
:101E900004978617970708F3C61BD70B2297C193A1
:101EA000D1936D937C93CF010E94970ED6CF5B01A7
:101EB000AC1ABD0A4C018C0E9D1EA0917002B0910F
:101EC0007102512C412CF12CE12C109731F58091AD
:101ED0006E0290916F028815990509F05CC0461654
:101EE000570608F058C080910001909101010097B9
:101EF00041F48DB79EB74091040150910501841BB8
:101F0000950BE817F90708F055C0F0936F02E093BE
:101F10006E02F90171836083A0CF8D919C9111971E
:101F200012966C90129713967C901397A815B9058A
:101F300059F56C0142E0C40ED11CCA14DB0420F137
:101F4000AC014A195B09DA011296159780F062829A
:101F5000738251834083D9016D937C93E114F10422
:101F600071F0D7011396FC93EE93129776CF2296D9
:101F70008C0F9D1FF90191838083F301EFCFF093C4
:101F80007102E093700269CF4816590608F42C01DB
:101F90007D01D3019ACFCB010E94FB0D7C010097FC
:101FA00049F0AE01B8010E94DD0FC8010E94970EF2
:101FB000870153CF10E000E050CFFB01DC0102C0ED
:101FC00001900D9241505040D8F70895FB01DC017B
:101FD0008D91019080190110D9F3990B0895FB019F
:101FE000DC0101900D920020E1F7089510E0C2E6B7
:101FF000D0E004C0FE010E94F50D2196C336D10742
:06200000C9F7F894FFCFC0
:10200600000072028000000000001E027E01AB018B
:102016006B02DC01BA01CE01000000007C037E01E8
:102026004F047B03D803EE0363030D0A00480056F2
:022036000000A8
:00000001FF
